{
  "contractName": "ERC721Token",
  "abi": [
    {
      "anonymous": false,
      "inputs": [
        {
          "indexed": true,
          "name": "_from",
          "type": "address"
        },
        {
          "indexed": true,
          "name": "_to",
          "type": "address"
        },
        {
          "indexed": true,
          "name": "_tokenId",
          "type": "uint256"
        }
      ],
      "name": "Transfer",
      "type": "event"
    },
    {
      "anonymous": false,
      "inputs": [
        {
          "indexed": true,
          "name": "_owner",
          "type": "address"
        },
        {
          "indexed": true,
          "name": "_approved",
          "type": "address"
        },
        {
          "indexed": true,
          "name": "_tokenId",
          "type": "uint256"
        }
      ],
      "name": "Approval",
      "type": "event"
    },
    {
      "anonymous": false,
      "inputs": [
        {
          "indexed": true,
          "name": "_owner",
          "type": "address"
        },
        {
          "indexed": true,
          "name": "_operator",
          "type": "address"
        },
        {
          "indexed": false,
          "name": "_approved",
          "type": "bool"
        }
      ],
      "name": "ApprovalForAll",
      "type": "event"
    },
    {
      "constant": false,
      "inputs": [
        {
          "name": "_tokenId",
          "type": "uint256"
        }
      ],
      "name": "mint",
      "outputs": [],
      "payable": false,
      "stateMutability": "nonpayable",
      "type": "function"
    },
    {
      "constant": true,
      "inputs": [
        {
          "name": "_owner",
          "type": "address"
        }
      ],
      "name": "balanceOf",
      "outputs": [
        {
          "name": "",
          "type": "uint256"
        }
      ],
      "payable": false,
      "stateMutability": "view",
      "type": "function"
    },
    {
      "constant": true,
      "inputs": [
        {
          "name": "_tokenId",
          "type": "uint256"
        }
      ],
      "name": "ownerOf",
      "outputs": [
        {
          "name": "",
          "type": "address"
        }
      ],
      "payable": false,
      "stateMutability": "view",
      "type": "function"
    },
    {
      "constant": false,
      "inputs": [
        {
          "name": "_from",
          "type": "address"
        },
        {
          "name": "_to",
          "type": "address"
        },
        {
          "name": "_tokenId",
          "type": "uint256"
        }
      ],
      "name": "safeTransferFrom",
      "outputs": [],
      "payable": true,
      "stateMutability": "payable",
      "type": "function"
    },
    {
      "constant": false,
      "inputs": [
        {
          "name": "_from",
          "type": "address"
        },
        {
          "name": "_to",
          "type": "address"
        },
        {
          "name": "_tokenId",
          "type": "uint256"
        },
        {
          "name": "data",
          "type": "bytes"
        }
      ],
      "name": "safeTransferFrom",
      "outputs": [],
      "payable": true,
      "stateMutability": "payable",
      "type": "function"
    },
    {
      "constant": false,
      "inputs": [
        {
          "name": "_from",
          "type": "address"
        },
        {
          "name": "_to",
          "type": "address"
        },
        {
          "name": "_tokenId",
          "type": "uint256"
        }
      ],
      "name": "transferFrom",
      "outputs": [],
      "payable": true,
      "stateMutability": "payable",
      "type": "function"
    },
    {
      "constant": false,
      "inputs": [
        {
          "name": "_approved",
          "type": "address"
        },
        {
          "name": "_tokenId",
          "type": "uint256"
        }
      ],
      "name": "approve",
      "outputs": [],
      "payable": true,
      "stateMutability": "payable",
      "type": "function"
    },
    {
      "constant": false,
      "inputs": [
        {
          "name": "_operator",
          "type": "address"
        },
        {
          "name": "_approved",
          "type": "bool"
        }
      ],
      "name": "setApprovalForAll",
      "outputs": [],
      "payable": false,
      "stateMutability": "nonpayable",
      "type": "function"
    },
    {
      "constant": true,
      "inputs": [
        {
          "name": "_tokenId",
          "type": "uint256"
        }
      ],
      "name": "getApproved",
      "outputs": [
        {
          "name": "",
          "type": "address"
        }
      ],
      "payable": false,
      "stateMutability": "view",
      "type": "function"
    },
    {
      "constant": true,
      "inputs": [
        {
          "name": "_owner",
          "type": "address"
        },
        {
          "name": "_operator",
          "type": "address"
        }
      ],
      "name": "isApprovedForAll",
      "outputs": [
        {
          "name": "",
          "type": "bool"
        }
      ],
      "payable": false,
      "stateMutability": "view",
      "type": "function"
    }
  ],
  "bytecode": "0x608060405234801561001057600080fd5b50610cb7806100206000396000f3006080604052600436106100a4576000357c0100000000000000000000000000000000000000000000000000000000900463ffffffff168063081812fc146100a9578063095ea7b31461011657806323b872dd1461015657806342842e0e146101b65780636352211e1461021657806370a0823114610283578063a0712d68146102da578063a22cb46514610307578063b88d4fde14610356578063e985e9c5146103ce575b600080fd5b3480156100b557600080fd5b506100d460048036038101908080359060200190929190505050610449565b604051808273ffffffffffffffffffffffffffffffffffffffff1673ffffffffffffffffffffffffffffffffffffffff16815260200191505060405180910390f35b610154600480360381019080803573ffffffffffffffffffffffffffffffffffffffff16906020019092919080359060200190929190505050610486565b005b6101b4600480360381019080803573ffffffffffffffffffffffffffffffffffffffff169060200190929190803573ffffffffffffffffffffffffffffffffffffffff169060200190929190803590602001909291905050506105a3565b005b610214600480360381019080803573ffffffffffffffffffffffffffffffffffffffff169060200190929190803573ffffffffffffffffffffffffffffffffffffffff169060200190929190803590602001909291905050506106a4565b005b34801561022257600080fd5b50610241600480360381019080803590602001909291905050506106a9565b604051808273ffffffffffffffffffffffffffffffffffffffff1673ffffffffffffffffffffffffffffffffffffffff16815260200191505060405180910390f35b34801561028f57600080fd5b506102c4600480360381019080803573ffffffffffffffffffffffffffffffffffffffff1690602001909291905050506106e5565b6040518082815260200191505060405180910390f35b3480156102e657600080fd5b50610305600480360381019080803590602001909291905050506107f8565b005b34801561031357600080fd5b50610354600480360381019080803573ffffffffffffffffffffffffffffffffffffffff1690602001909291908035151590602001909291905050506109f1565b005b6103cc600480360381019080803573ffffffffffffffffffffffffffffffffffffffff169060200190929190803573ffffffffffffffffffffffffffffffffffffffff16906020019092919080359060200190929190803590602001908201803590602001919091929391929390505050610af2565b005b3480156103da57600080fd5b5061042f600480360381019080803573ffffffffffffffffffffffffffffffffffffffff169060200190929190803573ffffffffffffffffffffffffffffffffffffffff169060200190929190505050610af9565b604051808215151515815260200191505060405180910390f35b60006002600083815260200190815260200160002060009054906101000a900473ffffffffffffffffffffffffffffffffffffffff169050919050565b3373ffffffffffffffffffffffffffffffffffffffff1660008083815260200190815260200160002060009054906101000a900473ffffffffffffffffffffffffffffffffffffffff1673ffffffffffffffffffffffffffffffffffffffff161415156104f257600080fd5b816002600083815260200190815260200160002060006101000a81548173ffffffffffffffffffffffffffffffffffffffff021916908373ffffffffffffffffffffffffffffffffffffffff160217905550808273ffffffffffffffffffffffffffffffffffffffff163373ffffffffffffffffffffffffffffffffffffffff167f8c5be1e5ebec7d5bd14f71427d1e84f3dd0314c0f7b2291e5b200ac8c7c3b92560405160405180910390a45050565b338160008082815260200190815260200160002060009054906101000a900473ffffffffffffffffffffffffffffffffffffffff1673ffffffffffffffffffffffffffffffffffffffff168273ffffffffffffffffffffffffffffffffffffffff16148061064457508173ffffffffffffffffffffffffffffffffffffffff1661062c82610449565b73ffffffffffffffffffffffffffffffffffffffff16145b80610687575061068660008083815260200190815260200160002060009054906101000a900473ffffffffffffffffffffffffffffffffffffffff1683610af9565b5b151561069257600080fd5b61069d858585610b8d565b5050505050565b505050565b600080600083815260200190815260200160002060009054906101000a900473ffffffffffffffffffffffffffffffffffffffff169050919050565b60008073ffffffffffffffffffffffffffffffffffffffff168273ffffffffffffffffffffffffffffffffffffffff16141515156107b1576040517f08c379a00000000000000000000000000000000000000000000000000000000081526004018080602001828103825260228152602001807f63616e6e6f742061736b206f662062616c616e6365206f66206164647265737381526020017f203000000000000000000000000000000000000000000000000000000000000081525060400191505060405180910390fd5b600160008373ffffffffffffffffffffffffffffffffffffffff1673ffffffffffffffffffffffffffffffffffffffff168152602001908152602001600020549050919050565b600073ffffffffffffffffffffffffffffffffffffffff1660008083815260200190815260200160002060009054906101000a900473ffffffffffffffffffffffffffffffffffffffff1673ffffffffffffffffffffffffffffffffffffffff161415156108f4576040517f08c379a000000000000000000000000000000000000000000000000000000000815260040180806020018281038252602a8152602001807f7468697320746f6b656e2062656c6f6e677320746f20736f6d656f6e6520656c81526020017f736520616c72656164790000000000000000000000000000000000000000000081525060400191505060405180910390fd5b3360008083815260200190815260200160002060006101000a81548173ffffffffffffffffffffffffffffffffffffffff021916908373ffffffffffffffffffffffffffffffffffffffff16021790555060018060003373ffffffffffffffffffffffffffffffffffffffff1673ffffffffffffffffffffffffffffffffffffffff16815260200190815260200160002060008282540192505081905550803373ffffffffffffffffffffffffffffffffffffffff16600073ffffffffffffffffffffffffffffffffffffffff167fddf252ad1be2c89b69c2b068fc378daa952ba7f163c4a11628f55a4df523b3ef60405160405180910390a450565b80600360003373ffffffffffffffffffffffffffffffffffffffff1673ffffffffffffffffffffffffffffffffffffffff16815260200190815260200160002060008473ffffffffffffffffffffffffffffffffffffffff1673ffffffffffffffffffffffffffffffffffffffff16815260200190815260200160002060006101000a81548160ff0219169083151502179055508173ffffffffffffffffffffffffffffffffffffffff163373ffffffffffffffffffffffffffffffffffffffff167f17307eab39ab6107e8899845ad3d59bd9653f200f220920489ca2b5937696c3183604051808215151515815260200191505060405180910390a35050565b5050505050565b6000600360008473ffffffffffffffffffffffffffffffffffffffff1673ffffffffffffffffffffffffffffffffffffffff16815260200190815260200160002060008373ffffffffffffffffffffffffffffffffffffffff1673ffffffffffffffffffffffffffffffffffffffff16815260200190815260200160002060009054906101000a900460ff16905092915050565b8160008083815260200190815260200160002060006101000a81548173ffffffffffffffffffffffffffffffffffffffff021916908373ffffffffffffffffffffffffffffffffffffffff16021790555060018060008573ffffffffffffffffffffffffffffffffffffffff1673ffffffffffffffffffffffffffffffffffffffff16815260200190815260200160002060008282540392505081905550808273ffffffffffffffffffffffffffffffffffffffff168473ffffffffffffffffffffffffffffffffffffffff167fddf252ad1be2c89b69c2b068fc378daa952ba7f163c4a11628f55a4df523b3ef60405160405180910390a45050505600a165627a7a723058207ebc69f9ce1d4d9a5a063e6b4286a62f953bb55a5755d744cc225c62771ca1150029",
  "source": "pragma solidity ^0.4.24; \r\n\r\nimport \"./ERC721.sol\";\r\n\r\ncontract ERC721Token is ERC721 {\r\n\r\n    mapping(uint256 => address) tokenToOwner; \r\n    mapping(address => uint256) ownerToBalance; \r\n    mapping(uint256 => address) tokenToApproved;\r\n    mapping(address => mapping(address => bool)) ownerToOperator;\r\n\r\n    modifier hasPermission(address _caller, uint256 _tokenId) { \r\n        require(_caller == tokenToOwner[_tokenId] \r\n        || getApproved(_tokenId) == _caller \r\n        || isApprovedForAll(tokenToOwner[_tokenId], _caller));\r\n        _;\r\n    }\r\n\r\n    function mint(uint256 _tokenId) public { \r\n        require(tokenToOwner[_tokenId] == address(0), \"this token belongs to someone else already\");\r\n\r\n        tokenToOwner[_tokenId] = msg.sender; \r\n        ownerToBalance[msg.sender] += 1;\r\n\r\n        emit Transfer(address(0), msg.sender, _tokenId);\r\n    }\r\n    \r\n    /// @notice Count all NFTs assigned to an owner\r\n    /// @dev NFTs assigned to the zero address are considered invalid, and this\r\n    ///  function throws for queries about the zero address.\r\n    /// @param _owner An address for whom to query the balance\r\n    /// @return The number of NFTs owned by `_owner`, possibly zero\r\n    function balanceOf(address _owner) external view returns (uint256) { \r\n        require(_owner != address(0), \"cannot ask of balance of address 0\");\r\n        return ownerToBalance[_owner];\r\n    }\r\n\r\n    /// @notice Find the owner of an NFT\r\n    /// @dev NFTs assigned to zero address are considered invalid, and queries\r\n    ///  about them do throw.\r\n    /// @param _tokenId The identifier for an NFT\r\n    /// @return The address of the owner of the NFT\r\n    function ownerOf(uint256 _tokenId) external view returns (address) { \r\n        return tokenToOwner[_tokenId];\r\n    }\r\n\r\n    /// @notice Transfers the ownership of an NFT from one address to another address\r\n    /// @dev Throws unless `msg.sender` is the current owner, an authorized\r\n    ///  operator, or the approved address for this NFT. Throws if `_from` is\r\n    ///  not the current owner. Throws if `_to` is the zero address. Throws if\r\n    ///  `_tokenId` is not a valid NFT. When transfer is complete, this function\r\n    ///  checks if `_to` is a smart contract (code size > 0). If so, it calls\r\n    ///  `onERC721Received` on `_to` and throws if the return value is not\r\n    ///  `bytes4(keccak256(\"onERC721Received(address,address,uint256,bytes)\"))`.\r\n    /// @param _from The current owner of the NFT\r\n    /// @param _to The new owner\r\n    /// @param _tokenId The NFT to transfer\r\n    /// @param data Additional data with no specified format, sent in call to `_to`\r\n    function safeTransferFrom(address _from, address _to, uint256 _tokenId, bytes data) external payable { \r\n        // WILL NOT IMPLEMENT\r\n    }\r\n\r\n    /// @notice Transfers the ownership of an NFT from one address to another address\r\n    /// @dev This works identically to the other function with an extra data parameter,\r\n    ///  except this function just sets data to \"\".\r\n    /// @param _from The current owner of the NFT\r\n    /// @param _to The new owner\r\n    /// @param _tokenId The NFT to transfer\r\n    function safeTransferFrom(address _from, address _to, uint256 _tokenId) external payable { \r\n        // WILL NOT IMPLEMENT\r\n    }\r\n\r\n    /// @notice Transfer ownership of an NFT -- THE CALLER IS RESPONSIBLE\r\n    ///  TO CONFIRM THAT `_to` IS CAPABLE OF RECEIVING NFTS OR ELSE\r\n    ///  THEY MAY BE PERMANENTLY LOST\r\n    /// @dev Throws unless `msg.sender` is the current owner, an authorized\r\n    ///  operator, or the approved address for this NFT. Throws if `_from` is\r\n    ///  not the current owner. Throws if `_to` is the zero address. Throws if\r\n    ///  `_tokenId` is not a valid NFT.\r\n    /// @param _from The current owner of the NFT\r\n    /// @param _to The new owner\r\n    /// @param _tokenId The NFT to transfer\r\n    function transferFrom(address _from, address _to, uint256 _tokenId) external payable hasPermission(msg.sender, _tokenId) { \r\n\r\n        transferFromHelper(_from, _to, _tokenId);\r\n    }\r\n\r\n    function transferFromHelper(address _from, address _to, uint256 _tokenId) internal { \r\n\r\n        tokenToOwner[_tokenId] = _to; \r\n        ownerToBalance[_from] -= 1;\r\n\r\n        emit Transfer(_from, _to, _tokenId);\r\n    }\r\n\r\n    /// @notice Change or reaffirm the approved address for an NFT\r\n    /// @dev The zero address indicates there is no approved address.\r\n    ///  Throws unless `msg.sender` is the current NFT owner, or an authorized\r\n    ///  operator of the current owner.\r\n    /// @param _approved The new approved NFT controller\r\n    /// @param _tokenId The NFT to approve\r\n    function approve(address _approved, uint256 _tokenId) external payable { \r\n        require(tokenToOwner[_tokenId] == msg.sender);\r\n        \r\n        tokenToApproved[_tokenId] = _approved;\r\n\r\n        emit Approval(msg.sender, _approved, _tokenId);\r\n    }\r\n\r\n    /// @notice Enable or disable approval for a third party (\"operator\") to manage\r\n    ///  all of `msg.sender`'s assets\r\n    /// @dev Emits the ApprovalForAll event. The contract MUST allow\r\n    ///  multiple operators per owner.\r\n    /// @param _operator Address to add to the set of authorized operators\r\n    /// @param _approved True if the operator is approved, false to revoke approval\r\n    function setApprovalForAll(address _operator, bool _approved) external { \r\n        ownerToOperator[msg.sender][_operator] = _approved;\r\n\r\n        emit ApprovalForAll(msg.sender, _operator, _approved);\r\n    }\r\n\r\n    /// @notice Get the approved address for a single NFT\r\n    /// @dev Throws if `_tokenId` is not a valid NFT.\r\n    /// @param _tokenId The NFT to find the approved address for\r\n    /// @return The approved address for this NFT, or the zero address if there is none\r\n    function getApproved(uint256 _tokenId) public view returns (address) { \r\n        return tokenToApproved[_tokenId];\r\n    }\r\n\r\n    /// @notice Query if an address is an authorized operator for another address\r\n    /// @param _owner The address that owns the NFTs\r\n    /// @param _operator The address that acts on behalf of the owner\r\n    /// @return True if `_operator` is an approved operator for `_owner`, false otherwise\r\n    function isApprovedForAll(address _owner, address _operator) public view returns (bool) { \r\n        return ownerToOperator[_owner][_operator];\r\n    }\r\n}",
  "sourcePath": "C:\\Users\\knakayama\\git\\blockchain_developer_projects\\project5\\smart_contracts\\contracts\\ERC721Token.sol",
  "compiler": {
    "name": "solc",
    "version": "0.4.24+commit.e67f0147.Emscripten.clang"
  },
  "schemaVersion": "2.0.1",
  "updatedAt": "2018-10-27T00:23:59.550Z"
}