{
  "contractName": "StarNotary",
  "abi": [
    {
      "constant": true,
      "inputs": [
        {
          "name": "interfaceId",
          "type": "bytes4"
        }
      ],
      "name": "supportsInterface",
      "outputs": [
        {
          "name": "",
          "type": "bool"
        }
      ],
      "payable": false,
      "stateMutability": "view",
      "type": "function"
    },
    {
      "constant": true,
      "inputs": [
        {
          "name": "",
          "type": "uint256"
        }
      ],
      "name": "starsForSale",
      "outputs": [
        {
          "name": "",
          "type": "uint256"
        }
      ],
      "payable": false,
      "stateMutability": "view",
      "type": "function"
    },
    {
      "constant": true,
      "inputs": [
        {
          "name": "tokenId",
          "type": "uint256"
        }
      ],
      "name": "getApproved",
      "outputs": [
        {
          "name": "",
          "type": "address"
        }
      ],
      "payable": false,
      "stateMutability": "view",
      "type": "function"
    },
    {
      "constant": false,
      "inputs": [
        {
          "name": "to",
          "type": "address"
        },
        {
          "name": "tokenId",
          "type": "uint256"
        }
      ],
      "name": "approve",
      "outputs": [],
      "payable": false,
      "stateMutability": "nonpayable",
      "type": "function"
    },
    {
      "constant": true,
      "inputs": [],
      "name": "tokenId",
      "outputs": [
        {
          "name": "",
          "type": "uint256"
        }
      ],
      "payable": false,
      "stateMutability": "view",
      "type": "function"
    },
    {
      "constant": false,
      "inputs": [
        {
          "name": "from",
          "type": "address"
        },
        {
          "name": "to",
          "type": "address"
        },
        {
          "name": "tokenId",
          "type": "uint256"
        }
      ],
      "name": "transferFrom",
      "outputs": [],
      "payable": false,
      "stateMutability": "nonpayable",
      "type": "function"
    },
    {
      "constant": false,
      "inputs": [
        {
          "name": "from",
          "type": "address"
        },
        {
          "name": "to",
          "type": "address"
        },
        {
          "name": "tokenId",
          "type": "uint256"
        }
      ],
      "name": "safeTransferFrom",
      "outputs": [],
      "payable": false,
      "stateMutability": "nonpayable",
      "type": "function"
    },
    {
      "constant": true,
      "inputs": [
        {
          "name": "tokenId",
          "type": "uint256"
        }
      ],
      "name": "ownerOf",
      "outputs": [
        {
          "name": "",
          "type": "address"
        }
      ],
      "payable": false,
      "stateMutability": "view",
      "type": "function"
    },
    {
      "constant": true,
      "inputs": [
        {
          "name": "owner",
          "type": "address"
        }
      ],
      "name": "balanceOf",
      "outputs": [
        {
          "name": "",
          "type": "uint256"
        }
      ],
      "payable": false,
      "stateMutability": "view",
      "type": "function"
    },
    {
      "constant": false,
      "inputs": [
        {
          "name": "to",
          "type": "address"
        },
        {
          "name": "approved",
          "type": "bool"
        }
      ],
      "name": "setApprovalForAll",
      "outputs": [],
      "payable": false,
      "stateMutability": "nonpayable",
      "type": "function"
    },
    {
      "constant": false,
      "inputs": [
        {
          "name": "from",
          "type": "address"
        },
        {
          "name": "to",
          "type": "address"
        },
        {
          "name": "tokenId",
          "type": "uint256"
        },
        {
          "name": "_data",
          "type": "bytes"
        }
      ],
      "name": "safeTransferFrom",
      "outputs": [],
      "payable": false,
      "stateMutability": "nonpayable",
      "type": "function"
    },
    {
      "constant": true,
      "inputs": [
        {
          "name": "owner",
          "type": "address"
        },
        {
          "name": "operator",
          "type": "address"
        }
      ],
      "name": "isApprovedForAll",
      "outputs": [
        {
          "name": "",
          "type": "bool"
        }
      ],
      "payable": false,
      "stateMutability": "view",
      "type": "function"
    },
    {
      "anonymous": false,
      "inputs": [
        {
          "indexed": true,
          "name": "from",
          "type": "address"
        },
        {
          "indexed": true,
          "name": "to",
          "type": "address"
        },
        {
          "indexed": true,
          "name": "tokenId",
          "type": "uint256"
        }
      ],
      "name": "Transfer",
      "type": "event"
    },
    {
      "anonymous": false,
      "inputs": [
        {
          "indexed": true,
          "name": "owner",
          "type": "address"
        },
        {
          "indexed": true,
          "name": "approved",
          "type": "address"
        },
        {
          "indexed": true,
          "name": "tokenId",
          "type": "uint256"
        }
      ],
      "name": "Approval",
      "type": "event"
    },
    {
      "anonymous": false,
      "inputs": [
        {
          "indexed": true,
          "name": "owner",
          "type": "address"
        },
        {
          "indexed": true,
          "name": "operator",
          "type": "address"
        },
        {
          "indexed": false,
          "name": "approved",
          "type": "bool"
        }
      ],
      "name": "ApprovalForAll",
      "type": "event"
    },
    {
      "constant": false,
      "inputs": [
        {
          "name": "_name",
          "type": "string"
        },
        {
          "name": "_story",
          "type": "string"
        },
        {
          "name": "_dec",
          "type": "string"
        },
        {
          "name": "_mag",
          "type": "string"
        },
        {
          "name": "_ra",
          "type": "string"
        }
      ],
      "name": "createStar",
      "outputs": [],
      "payable": false,
      "stateMutability": "nonpayable",
      "type": "function"
    },
    {
      "constant": false,
      "inputs": [
        {
          "name": "_tokenId",
          "type": "uint256"
        }
      ],
      "name": "mint",
      "outputs": [],
      "payable": false,
      "stateMutability": "nonpayable",
      "type": "function"
    },
    {
      "constant": false,
      "inputs": [
        {
          "name": "_tokenId",
          "type": "uint256"
        },
        {
          "name": "_price",
          "type": "uint256"
        }
      ],
      "name": "putStarUpForSale",
      "outputs": [],
      "payable": false,
      "stateMutability": "nonpayable",
      "type": "function"
    },
    {
      "constant": false,
      "inputs": [
        {
          "name": "_tokenId",
          "type": "uint256"
        }
      ],
      "name": "buyStar",
      "outputs": [],
      "payable": true,
      "stateMutability": "payable",
      "type": "function"
    },
    {
      "constant": true,
      "inputs": [
        {
          "name": "_dec",
          "type": "string"
        },
        {
          "name": "_mag",
          "type": "string"
        },
        {
          "name": "_ra",
          "type": "string"
        }
      ],
      "name": "checkIfStarExist",
      "outputs": [
        {
          "name": "flag",
          "type": "bool"
        }
      ],
      "payable": false,
      "stateMutability": "view",
      "type": "function"
    },
    {
      "constant": true,
      "inputs": [
        {
          "name": "_tokenId",
          "type": "uint256"
        }
      ],
      "name": "tokenIdToStarInfo",
      "outputs": [
        {
          "name": "starName",
          "type": "string"
        },
        {
          "name": "starStory",
          "type": "string"
        },
        {
          "name": "starDec",
          "type": "string"
        },
        {
          "name": "starMag",
          "type": "string"
        },
        {
          "name": "starRa",
          "type": "string"
        }
      ],
      "payable": false,
      "stateMutability": "view",
      "type": "function"
    }
  ],
  "bytecode": "0x60806040526001600555620000466301ffc9a77c01000000000000000000000000000000000000000000000000000000000262000089640100000000026401000000009004565b620000836380ac58cd7c01000000000000000000000000000000000000000000000000000000000262000089640100000000026401000000009004565b62000147565b63ffffffff7c010000000000000000000000000000000000000000000000000000000002817bffffffffffffffffffffffffffffffffffffffffffffffffffffffff191614151515620000db57600080fd5b6001600080837bffffffffffffffffffffffffffffffffffffffffffffffffffffffff19167bffffffffffffffffffffffffffffffffffffffffffffffffffffffff1916815260200190815260200160002060006101000a81548160ff02191690831515021790555050565b6127be80620001576000396000f3006080604052600436106100fc576000357c0100000000000000000000000000000000000000000000000000000000900463ffffffff16806301ffc9a7146101015780630384153d146101655780630564b13014610272578063081812fc146102b3578063095ea7b31461032057806317d70f7c1461036d5780631967fd981461039857806323b872dd146105ee5780632f1c34ef1461065b578063316a43611461067b57806342842e0e146106b25780635f3ff33c1461071f5780636352211e146108a057806370a082311461090d578063a0712d6814610964578063a22cb46514610991578063b88d4fde146109e0578063e985e9c514610a93575b600080fd5b34801561010d57600080fd5b5061014b60048036038101908080357bffffffffffffffffffffffffffffffffffffffffffffffffffffffff19169060200190929190505050610b0e565b604051808215151515815260200191505060405180910390f35b34801561017157600080fd5b50610258600480360381019080803590602001908201803590602001908080601f0160208091040260200160405190810160405280939291908181526020018383808284378201915050505050509192919290803590602001908201803590602001908080601f0160208091040260200160405190810160405280939291908181526020018383808284378201915050505050509192919290803590602001908201803590602001908080601f0160208091040260200160405190810160405280939291908181526020018383808284378201915050505050509192919290505050610b75565b604051808215151515815260200191505060405180910390f35b34801561027e57600080fd5b5061029d6004803603810190808035906020019092919050505061110e565b6040518082815260200191505060405180910390f35b3480156102bf57600080fd5b506102de60048036038101908080359060200190929190505050611126565b604051808273ffffffffffffffffffffffffffffffffffffffff1673ffffffffffffffffffffffffffffffffffffffff16815260200191505060405180910390f35b34801561032c57600080fd5b5061036b600480360381019080803573ffffffffffffffffffffffffffffffffffffffff16906020019092919080359060200190929190505050611177565b005b34801561037957600080fd5b506103826112bc565b6040518082815260200191505060405180910390f35b3480156103a457600080fd5b506103c3600480360381019080803590602001909291905050506112c2565b60405180806020018060200180602001806020018060200186810386528b818151815260200191508051906020019080838360005b838110156104135780820151818401526020810190506103f8565b50505050905090810190601f1680156104405780820380516001836020036101000a031916815260200191505b5086810385528a818151815260200191508051906020019080838360005b8381101561047957808201518184015260208101905061045e565b50505050905090810190601f1680156104a65780820380516001836020036101000a031916815260200191505b50868103845289818151815260200191508051906020019080838360005b838110156104df5780820151818401526020810190506104c4565b50505050905090810190601f16801561050c5780820380516001836020036101000a031916815260200191505b50868103835288818151815260200191508051906020019080838360005b8381101561054557808201518184015260208101905061052a565b50505050905090810190601f1680156105725780820380516001836020036101000a031916815260200191505b50868103825287818151815260200191508051906020019080838360005b838110156105ab578082015181840152602081019050610590565b50505050905090810190601f1680156105d85780820380516001836020036101000a031916815260200191505b509a505050505050505050505060405180910390f35b3480156105fa57600080fd5b50610659600480360381019080803573ffffffffffffffffffffffffffffffffffffffff169060200190929190803573ffffffffffffffffffffffffffffffffffffffff16906020019092919080359060200190929190505050611660565b005b6106796004803603810190808035906020019092919050505061172f565b005b34801561068757600080fd5b506106b060048036038101908080359060200190929190803590602001909291905050506118d9565b005b3480156106be57600080fd5b5061071d600480360381019080803573ffffffffffffffffffffffffffffffffffffffff169060200190929190803573ffffffffffffffffffffffffffffffffffffffff169060200190929190803590602001909291905050506119da565b005b34801561072b57600080fd5b5061089e600480360381019080803590602001908201803590602001908080601f0160208091040260200160405190810160405280939291908181526020018383808284378201915050505050509192919290803590602001908201803590602001908080601f0160208091040260200160405190810160405280939291908181526020018383808284378201915050505050509192919290803590602001908201803590602001908080601f0160208091040260200160405190810160405280939291908181526020018383808284378201915050505050509192919290803590602001908201803590602001908080601f0160208091040260200160405190810160405280939291908181526020018383808284378201915050505050509192919290803590602001908201803590602001908080601f01602080910402602001604051908101604052809392919081815260200183838082843782019150505050505091929192905050506119fb565b005b3480156108ac57600080fd5b506108cb60048036038101908080359060200190929190505050611bbc565b604051808273ffffffffffffffffffffffffffffffffffffffff1673ffffffffffffffffffffffffffffffffffffffff16815260200191505060405180910390f35b34801561091957600080fd5b5061094e600480360381019080803573ffffffffffffffffffffffffffffffffffffffff169060200190929190505050611c3a565b6040518082815260200191505060405180910390f35b34801561097057600080fd5b5061098f60048036038101908080359060200190929190505050611cbe565b005b34801561099d57600080fd5b506109de600480360381019080803573ffffffffffffffffffffffffffffffffffffffff169060200190929190803515159060200190929190505050611ccb565b005b3480156109ec57600080fd5b50610a91600480360381019080803573ffffffffffffffffffffffffffffffffffffffff169060200190929190803573ffffffffffffffffffffffffffffffffffffffff16906020019092919080359060200190929190803590602001908201803590602001908080601f0160208091040260200160405190810160405280939291908181526020018383808284378201915050505050509192919290505050611e07565b005b348015610a9f57600080fd5b50610af4600480360381019080803573ffffffffffffffffffffffffffffffffffffffff169060200190929190803573ffffffffffffffffffffffffffffffffffffffff169060200190929190505050611e2f565b604051808215151515815260200191505060405180910390f35b6000806000837bffffffffffffffffffffffffffffffffffffffffffffffffffffffff19167bffffffffffffffffffffffffffffffffffffffffffffffffffffffff1916815260200190815260200160002060009054906101000a900460ff169050919050565b600080600190505b60055481101561110157846040516020018082805190602001908083835b602083101515610bc05780518252602082019150602081019050602083039250610b9b565b6001836020036101000a0380198251168184511680821785525050505050509050019150506040516020818303038152906040526040518082805190602001908083835b602083101515610c295780518252602082019150602081019050602083039250610c04565b6001836020036101000a038019825116818451168082178552505050505050905001915050604051809103902060001916600660008381526020019081526020016000206002016000016040516020018082805460018160011615610100020316600290048015610cd15780601f10610caf576101008083540402835291820191610cd1565b820191906000526020600020905b815481529060010190602001808311610cbd575b50509150506040516020818303038152906040526040518082805190602001908083835b602083101515610d1a5780518252602082019150602081019050602083039250610cf5565b6001836020036101000a038019825116818451168082178552505050505050905001915050604051809103902060001916148015610f195750836040516020018082805190602001908083835b602083101515610d8c5780518252602082019150602081019050602083039250610d67565b6001836020036101000a0380198251168184511680821785525050505050509050019150506040516020818303038152906040526040518082805190602001908083835b602083101515610df55780518252602082019150602081019050602083039250610dd0565b6001836020036101000a038019825116818451168082178552505050505050905001915050604051809103902060001916600660008381526020019081526020016000206002016001016040516020018082805460018160011615610100020316600290048015610e9d5780601f10610e7b576101008083540402835291820191610e9d565b820191906000526020600020905b815481529060010190602001808311610e89575b50509150506040516020818303038152906040526040518082805190602001908083835b602083101515610ee65780518252602082019150602081019050602083039250610ec1565b6001836020036101000a038019825116818451168082178552505050505050905001915050604051809103902060001916145b80156110e65750826040516020018082805190602001908083835b602083101515610f595780518252602082019150602081019050602083039250610f34565b6001836020036101000a0380198251168184511680821785525050505050509050019150506040516020818303038152906040526040518082805190602001908083835b602083101515610fc25780518252602082019150602081019050602083039250610f9d565b6001836020036101000a03801982511681845116808217855250505050505090500191505060405180910390206000191660066000838152602001908152602001600020600201600201604051602001808280546001816001161561010002031660029004801561106a5780601f1061104857610100808354040283529182019161106a565b820191906000526020600020905b815481529060010190602001808311611056575b50509150506040516020818303038152906040526040518082805190602001908083835b6020831015156110b3578051825260208201915060208101905060208303925061108e565b6001836020036101000a038019825116818451168082178552505050505050905001915050604051809103902060001916145b156110f45760019150611106565b8080600101915050610b7d565b600091505b509392505050565b60076020528060005260406000206000915090505481565b600061113182611ec3565b151561113c57600080fd5b6002600083815260200190815260200160002060009054906101000a900473ffffffffffffffffffffffffffffffffffffffff169050919050565b600061118282611bbc565b90508073ffffffffffffffffffffffffffffffffffffffff168373ffffffffffffffffffffffffffffffffffffffff16141515156111bf57600080fd5b8073ffffffffffffffffffffffffffffffffffffffff163373ffffffffffffffffffffffffffffffffffffffff1614806111ff57506111fe8133611e2f565b5b151561120a57600080fd5b826002600084815260200190815260200160002060006101000a81548173ffffffffffffffffffffffffffffffffffffffff021916908373ffffffffffffffffffffffffffffffffffffffff160217905550818373ffffffffffffffffffffffffffffffffffffffff168273ffffffffffffffffffffffffffffffffffffffff167f8c5be1e5ebec7d5bd14f71427d1e84f3dd0314c0f7b2291e5b200ac8c7c3b92560405160405180910390a4505050565b60055481565b6060806060806060600660008781526020019081526020016000206000016006600088815260200190815260200160002060010160066000898152602001908152602001600020600201600001600660008a8152602001908152602001600020600201600101600660008b8152602001908152602001600020600201600201848054600181600116156101000203166002900480601f0160208091040260200160405190810160405280929190818152602001828054600181600116156101000203166002900480156113d65780601f106113ab576101008083540402835291602001916113d6565b820191906000526020600020905b8154815290600101906020018083116113b957829003601f168201915b50505050509450838054600181600116156101000203166002900480601f0160208091040260200160405190810160405280929190818152602001828054600181600116156101000203166002900480156114725780601f1061144757610100808354040283529160200191611472565b820191906000526020600020905b81548152906001019060200180831161145557829003601f168201915b50505050509350828054600181600116156101000203166002900480601f01602080910402602001604051908101604052809291908181526020018280546001816001161561010002031660029004801561150e5780601f106114e35761010080835404028352916020019161150e565b820191906000526020600020905b8154815290600101906020018083116114f157829003601f168201915b50505050509250818054600181600116156101000203166002900480601f0160208091040260200160405190810160405280929190818152602001828054600181600116156101000203166002900480156115aa5780601f1061157f576101008083540402835291602001916115aa565b820191906000526020600020905b81548152906001019060200180831161158d57829003601f168201915b50505050509150808054600181600116156101000203166002900480601f0160208091040260200160405190810160405280929190818152602001828054600181600116156101000203166002900480156116465780601f1061161b57610100808354040283529160200191611646565b820191906000526020600020905b81548152906001019060200180831161162957829003601f168201915b505050505090509450945094509450945091939590929450565b61166a3382611f35565b151561167557600080fd5b600073ffffffffffffffffffffffffffffffffffffffff168273ffffffffffffffffffffffffffffffffffffffff16141515156116b157600080fd5b6116bb8382611fca565b6116c583826120cd565b6116cf82826121fc565b808273ffffffffffffffffffffffffffffffffffffffff168473ffffffffffffffffffffffffffffffffffffffff167fddf252ad1be2c89b69c2b068fc378daa952ba7f163c4a11628f55a4df523b3ef60405160405180910390a4505050565b6000806000600760008581526020019081526020016000205411151561175457600080fd5b600760008481526020019081526020016000205491503073ffffffffffffffffffffffffffffffffffffffff16636352211e846040518263ffffffff167c010000000000000000000000000000000000000000000000000000000002815260040180828152602001915050602060405180830381600087803b1580156117d957600080fd5b505af11580156117ed573d6000803e3d6000fd5b505050506040513d602081101561180357600080fd5b8101908080519060200190929190505050905081341015151561182557600080fd5b61182f8184612356565b61183b336005546121fc565b8134111561188d573373ffffffffffffffffffffffffffffffffffffffff166108fc8334039081150290604051600060405180830381858888f1935050505015801561188b573d6000803e3d6000fd5b505b8073ffffffffffffffffffffffffffffffffffffffff166108fc839081150290604051600060405180830381858888f193505050501580156118d3573d6000803e3d6000fd5b50505050565b3373ffffffffffffffffffffffffffffffffffffffff163073ffffffffffffffffffffffffffffffffffffffff16636352211e6005546040518263ffffffff167c010000000000000000000000000000000000000000000000000000000002815260040180828152602001915050602060405180830381600087803b15801561196157600080fd5b505af1158015611975573d6000803e3d6000fd5b505050506040513d602081101561198b57600080fd5b810190808051906020019092919050505073ffffffffffffffffffffffffffffffffffffffff161415156119be57600080fd5b8060076000848152602001908152602001600020819055505050565b6119f68383836020604051908101604052806000815250611e07565b505050565b6060806060806060611a0b612681565b611a136126a3565b600060055414151515611a2557600080fd5b8b96508a95508994508893508792506000875114151515611a4557600080fd5b6000865114151515611a5657600080fd5b6000855114151515611a6757600080fd5b6000845114151515611a7857600080fd5b6000835114151515611a8957600080fd5b611a948a8a8a610b75565b151515611aa057600080fd5b6060604051908101604052808b81526020018a81526020018981525091506060604051908101604052808d81526020018c8152602001838152509050806006600060055481526020019081526020016000206000820151816000019080519060200190611b0e9291906126cb565b506020820151816001019080519060200190611b2b9291906126cb565b506040820151816002016000820151816000019080519060200190611b519291906126cb565b506020820151816001019080519060200190611b6e9291906126cb565b506040820151816002019080519060200190611b8b9291906126cb565b505050905050611b9c600554611cbe565b600560008154809291906001019190505550505050505050505050505050565b6000806001600084815260200190815260200160002060009054906101000a900473ffffffffffffffffffffffffffffffffffffffff169050600073ffffffffffffffffffffffffffffffffffffffff168173ffffffffffffffffffffffffffffffffffffffff1614151515611c3157600080fd5b80915050919050565b60008073ffffffffffffffffffffffffffffffffffffffff168273ffffffffffffffffffffffffffffffffffffffff1614151515611c7757600080fd5b600360008373ffffffffffffffffffffffffffffffffffffffff1673ffffffffffffffffffffffffffffffffffffffff168152602001908152602001600020549050919050565b611cc83382612364565b50565b3373ffffffffffffffffffffffffffffffffffffffff168273ffffffffffffffffffffffffffffffffffffffff1614151515611d0657600080fd5b80600460003373ffffffffffffffffffffffffffffffffffffffff1673ffffffffffffffffffffffffffffffffffffffff16815260200190815260200160002060008473ffffffffffffffffffffffffffffffffffffffff1673ffffffffffffffffffffffffffffffffffffffff16815260200190815260200160002060006101000a81548160ff0219169083151502179055508173ffffffffffffffffffffffffffffffffffffffff163373ffffffffffffffffffffffffffffffffffffffff167f17307eab39ab6107e8899845ad3d59bd9653f200f220920489ca2b5937696c3183604051808215151515815260200191505060405180910390a35050565b611e12848484611660565b611e1e8484848461240a565b1515611e2957600080fd5b50505050565b6000600460008473ffffffffffffffffffffffffffffffffffffffff1673ffffffffffffffffffffffffffffffffffffffff16815260200190815260200160002060008373ffffffffffffffffffffffffffffffffffffffff1673ffffffffffffffffffffffffffffffffffffffff16815260200190815260200160002060009054906101000a900460ff16905092915050565b6000806001600084815260200190815260200160002060009054906101000a900473ffffffffffffffffffffffffffffffffffffffff169050600073ffffffffffffffffffffffffffffffffffffffff168173ffffffffffffffffffffffffffffffffffffffff161415915050919050565b600080611f4183611bbc565b90508073ffffffffffffffffffffffffffffffffffffffff168473ffffffffffffffffffffffffffffffffffffffff161480611fb057508373ffffffffffffffffffffffffffffffffffffffff16611f9884611126565b73ffffffffffffffffffffffffffffffffffffffff16145b80611fc15750611fc08185611e2f565b5b91505092915050565b8173ffffffffffffffffffffffffffffffffffffffff16611fea82611bbc565b73ffffffffffffffffffffffffffffffffffffffff1614151561200c57600080fd5b600073ffffffffffffffffffffffffffffffffffffffff166002600083815260200190815260200160002060009054906101000a900473ffffffffffffffffffffffffffffffffffffffff1673ffffffffffffffffffffffffffffffffffffffff161415156120c95760006002600083815260200190815260200160002060006101000a81548173ffffffffffffffffffffffffffffffffffffffff021916908373ffffffffffffffffffffffffffffffffffffffff1602179055505b5050565b8173ffffffffffffffffffffffffffffffffffffffff166120ed82611bbc565b73ffffffffffffffffffffffffffffffffffffffff1614151561210f57600080fd5b6121626001600360008573ffffffffffffffffffffffffffffffffffffffff1673ffffffffffffffffffffffffffffffffffffffff1681526020019081526020016000205461262c90919063ffffffff16565b600360008473ffffffffffffffffffffffffffffffffffffffff1673ffffffffffffffffffffffffffffffffffffffff1681526020019081526020016000208190555060006001600083815260200190815260200160002060006101000a81548173ffffffffffffffffffffffffffffffffffffffff021916908373ffffffffffffffffffffffffffffffffffffffff1602179055505050565b600073ffffffffffffffffffffffffffffffffffffffff166001600083815260200190815260200160002060009054906101000a900473ffffffffffffffffffffffffffffffffffffffff1673ffffffffffffffffffffffffffffffffffffffff1614151561226a57600080fd5b816001600083815260200190815260200160002060006101000a81548173ffffffffffffffffffffffffffffffffffffffff021916908373ffffffffffffffffffffffffffffffffffffffff16021790555061230f6001600360008573ffffffffffffffffffffffffffffffffffffffff1673ffffffffffffffffffffffffffffffffffffffff1681526020019081526020016000205461264d90919063ffffffff16565b600360008473ffffffffffffffffffffffffffffffffffffffff1673ffffffffffffffffffffffffffffffffffffffff168152602001908152602001600020819055505050565b61236082826120cd565b5050565b600073ffffffffffffffffffffffffffffffffffffffff168273ffffffffffffffffffffffffffffffffffffffff16141515156123a057600080fd5b6123aa82826121fc565b808273ffffffffffffffffffffffffffffffffffffffff16600073ffffffffffffffffffffffffffffffffffffffff167fddf252ad1be2c89b69c2b068fc378daa952ba7f163c4a11628f55a4df523b3ef60405160405180910390a45050565b60008061242c8573ffffffffffffffffffffffffffffffffffffffff1661266e565b151561243b5760019150612623565b8473ffffffffffffffffffffffffffffffffffffffff1663150b7a02338887876040518563ffffffff167c0100000000000000000000000000000000000000000000000000000000028152600401808573ffffffffffffffffffffffffffffffffffffffff1673ffffffffffffffffffffffffffffffffffffffff1681526020018473ffffffffffffffffffffffffffffffffffffffff1673ffffffffffffffffffffffffffffffffffffffff16815260200183815260200180602001828103825283818151815260200191508051906020019080838360005b83811015612530578082015181840152602081019050612515565b50505050905090810190601f16801561255d5780820380516001836020036101000a031916815260200191505b5095505050505050602060405180830381600087803b15801561257f57600080fd5b505af1158015612593573d6000803e3d6000fd5b505050506040513d60208110156125a957600080fd5b8101908080519060200190929190505050905063150b7a027c0100000000000000000000000000000000000000000000000000000000027bffffffffffffffffffffffffffffffffffffffffffffffffffffffff1916817bffffffffffffffffffffffffffffffffffffffffffffffffffffffff19161491505b50949350505050565b60008083831115151561263e57600080fd5b82840390508091505092915050565b600080828401905083811015151561266457600080fd5b8091505092915050565b600080823b905060008111915050919050565b6060604051908101604052806060815260200160608152602001606081525090565b60a06040519081016040528060608152602001606081526020016126c561274b565b81525090565b828054600181600116156101000203166002900490600052602060002090601f016020900481019282601f1061270c57805160ff191683800117855561273a565b8280016001018555821561273a579182015b8281111561273957825182559160200191906001019061271e565b5b509050612747919061276d565b5090565b6060604051908101604052806060815260200160608152602001606081525090565b61278f91905b8082111561278b576000816000905550600101612773565b5090565b905600a165627a7a72305820a3bf998321fb8db72e04c57770f947dce3cd0453420b1ff9af0f07bfbcaedb8e0029",
  "source": "pragma solidity ^0.4.24;\r\n\r\n//import \"./ERC721Token.sol\";\r\nimport \"../node_modules/openzeppelin-solidity/contracts/token/ERC721/ERC721.sol\";\r\n\r\ncontract StarNotary is ERC721 { \r\n\r\n    struct Star { \r\n        string name;\r\n        string story;\r\n        Coordinates coordinates;\r\n    }\r\n\r\n    struct Coordinates {\r\n        string dec;\r\n        string mag;\r\n        string ra;\r\n    }\r\n\r\n    uint public tokenId = 1;\r\n    mapping(uint256 => Star) public tokenIdToStarInfo;\r\n    mapping(uint256 => uint256) public starsForSale;\r\n\r\n    function createStar(string _name, string _story, string _dec, string _mag, string _ra) public { \r\n\r\n        require(tokenId != 0);\r\n\r\n        bytes memory tempName = bytes(_name);\r\n        bytes memory tempStory = bytes(_story);\r\n        bytes memory tempDec = bytes(_dec);\r\n        bytes memory tempMag = bytes(_mag);\r\n        bytes memory tempRa = bytes(_ra);\r\n\r\n        require(tempName.length != 0);\r\n        require(tempStory.length != 0);\r\n        require(tempDec.length != 0);\r\n        require(tempMag.length != 0);\r\n        require(tempRa.length != 0);\r\n\r\n        require(!checkIfStarExist(_dec, _mag, _ra));\r\n\r\n        Coordinates memory coord = Coordinates(_dec, _mag, _ra);\r\n\r\n        Star memory newStar = Star(_name, _story, coord);\r\n\r\n        tokenIdToStarInfo[tokenId] = newStar;\r\n\r\n        mint(tokenId);\r\n\r\n        tokenId ++;\r\n    }\r\n\r\n    function mint(uint256 _tokenId) public {\r\n        super._mint(msg.sender, _tokenId);\r\n    }\r\n\r\n    function putStarUpForSale(uint256 _tokenId, uint256 _price) public { \r\n        require(this.ownerOf(tokenId) == msg.sender);\r\n\r\n        starsForSale[_tokenId] = _price;\r\n    }\r\n\r\n    function buyStar(uint256 _tokenId) public payable { \r\n        require(starsForSale[_tokenId] > 0);\r\n\r\n        uint256 starCost = starsForSale[_tokenId];\r\n        address starOwner = this.ownerOf(_tokenId);\r\n\r\n        require(msg.value >= starCost);\r\n\r\n        clearPreviousStarState(starOwner, _tokenId);\r\n\r\n        //transferFromHelper(starOwner, msg.sender, _tokenId);\r\n        _addTokenTo(msg.sender, tokenId);\r\n\r\n        if(msg.value > starCost) { \r\n            msg.sender.transfer(msg.value - starCost);\r\n        }\r\n\r\n        starOwner.transfer(starCost);\r\n    }\r\n\r\n    function checkIfStarExist(string _dec, string _mag, string _ra) public view returns (bool flag) {\r\n        \r\n        for (uint i = 1; i < tokenId; i++) {\r\n            if (keccak256(abi.encodePacked(tokenIdToStarInfo[i].coordinates.dec)) == keccak256(abi.encodePacked(_dec))\r\n                && keccak256(abi.encodePacked(tokenIdToStarInfo[i].coordinates.mag)) == keccak256(abi.encodePacked(_mag))\r\n                && keccak256(abi.encodePacked(tokenIdToStarInfo[i].coordinates.ra)) == keccak256(abi.encodePacked(_ra))) {\r\n                return true;\r\n            }\r\n        }\r\n\r\n        return false;\r\n    }\r\n\r\n    function tokenIdToStarInfo(uint _tokenId) public view returns(string starName, string starStory, string starDec, \r\n        string starMag, string starRa) {\r\n        return (tokenIdToStarInfo[_tokenId].name, tokenIdToStarInfo[_tokenId].story, tokenIdToStarInfo[_tokenId].coordinates\r\n            .dec, tokenIdToStarInfo[_tokenId].coordinates.mag, tokenIdToStarInfo[_tokenId].coordinates.ra);\r\n    }\r\n\r\n    function clearPreviousStarState(address _starOwner, uint256 _tokenId) private {\r\n        //clear approvals \r\n        //tokenToApproved[_tokenId] = address(0);\r\n        //clear being on sale \r\n        //starsForSale[_tokenId] = 0;\r\n        _removeTokenFrom(_starOwner, _tokenId);\r\n    }\r\n}",
  "sourcePath": "C:\\Users\\knakayama\\git\\blockchain_developer_projects\\project5\\smart_contracts\\contracts\\StarNotary.sol",
  "compiler": {
    "name": "solc",
    "version": "0.4.24+commit.e67f0147.Emscripten.clang"
  },
  "schemaVersion": "2.0.1",
  "updatedAt": "2018-10-27T00:29:49.932Z"
}